:020000040800F2
:100000000000012089780008D5780008D57800081C
:10001000D5780008D5780008D578000800000000E1
:10002000000000000000000000000000F57500085E
:10003000D5780008000000005D760008A57600086D
:10004000D5780008D5780008D5780008D57800085C
:10005000D5780008D5780008D5780008D57800084C
:10006000D5780008D5780008D5780008D57800083C
:10007000D5780008D5780008D5780008D57800082C
:10008000D5780008D5780008D5780008D57800081C
:10009000D5780008D5780008D5780008D57800080C
:1000A000D5780008D5780008D5780008D5780008FC
:1000B000D578000849730008D5780008D57800087D
:1000C000D5780008D5780008D5780008D5780008DC
:1000D000D5780008D5780008D5780008D5780008CC
:1000E000D5780008D5780008D5780008D5780008BC
:1000F000D5780008D5780008D5780008D5780008AC
:10010000D5780008D5780008D5780008D57800089B
:10011000D5780008D5780008D5780008D57800088B
:10012000D5780008D5780008D5780008D57800087B
:1001300000000000000000000000000000000000BF
:1001400000000000000000000000000000000000AF
:10015000000000000000000000000000000000009F
:10016000000000000000000000000000000000008F
:10017000000000000000000000000000000000007F
:10018000000000000000000000000000000000006F
:10019000000000000000000000000000000000005F
:1001A000000000000000000000000000000000004F
:1001B000000000000000000000000000000000003F
:1001C000000000000000000000000000000000002F
:1001D000000000000000000000000000000000001F
:1001E0002DE9F04F524C83B023780646532B9046AE
:1001F00000913ED07822002104F1300007F08EFB00
:100200004FF0030C00234FF480594520472552211D
:1002100054224FF0100E4FF0530B4FF0200AC4F849
:1002200010C0444FC4F814C0DFF80CC1A761C4F873
:100230001CC0C4F82090A3626362E362276604F1E5
:10024000A8076766C4F868E02367E366636784F815
:1002500000B06070A570E5702071617184F806A02F
:10026000E17122726272A372E37223736373A373E8
:10027000E37306EB460904EBC909D9F82870D9F8ED
:1002800024A04FEA460B57451CD8AAEB0705454565
:1002900028BF45461DB9284603B0BDE8F08F06EBE0
:1002A000460304EBC303D9692A463944009807F092
:1002B00048FB2F442846B34404EBCB04A76203B0A9
:1002C000BDE8F08FD9F82050731CED1B454528BFC1
:1002D000454603EB430204EBC202516800982A46EC
:1002E0003944019307F02DFBD9F820202F44BA425E
:1002F000A8EB050814BFAAEB070A0027D04528BFC2
:10030000D046019BB8F1000F02D1002DD2D1C2E737
:1003100003EB430304EBC3035968009839442844B2
:100320004246454407F00DFB4744002DC2D1B2E7D9
:100330005800002068820008140100202DE9F04FC9
:10034000554C054623780F46532B164683B045D0AF
:100350004FF003087822002104F1300007F0DEFAA4
:100360004FF4805A0023C4F81080DFF830E1C4F85D
:100370001480DFF82C81C4F818E0C4F81C80C4F89D
:1003800020A0A3626362E362C4F860E004F1A80EF7
:10039000C4F864E045204FF0470C522154224FF03E
:1003A00053094FF0200B4FF0100EC4F868E023679C
:1003B000E366636784F80090607084F802C084F894
:1003C00003C02071617184F806B0E171227262721B
:1003D000A372E37223736373A373E37305EB45089E
:1003E00004EBC808D8F86CB0D8F870906B00D94509
:1003F0001DD8ABEB090B5E4528BF5E46B2461EB961
:10040000504603B0BDE8F08FD8F864103846494430
:100410003246019307F095FA019BB14450462B44B4
:1004200004EBC304C4F8709003B0BDE8F08FD8F8B3
:100430006820D8F86410A2EB090AB24528BFB2467A
:10044000494452463846019307F07BFAD8F86820B1
:10045000D1444A45A6EB0A0614BFABEB090B4FF09B
:1004600000095E4528BF5E46019B1EB9BAF1000F28
:10047000D4D1C5E75A1904EBC202516E07EB0A004A
:1004800049443246B2440193B14407F05AFA019B01
:10049000BAF1000FC2D1B3E758000020688200080B
:1004A000140100202DE9F04F85B0064690460291D8
:1004B000EFF311834FF0200181F31188514C019328
:1004C0002378532B3ED07822002104F1300007F02E
:1004D00025FA4FF0030C00234FF4805E452047259A
:1004E000522154224FF0100A4FF0530B4FF02009C5
:1004F000C4F810C0444FC4F814C0DFF810C1A7619D
:10050000C4F81CC0C4F820E0A3626362E3622766FB
:1005100004F1A8076766C4F868A02367E366636709
:1005200084F800B06070A570E5702071617184F886
:100530000690E17122726272A372E3722373637395
:10054000A373E37306EB460904EBC909D9F82870D5
:10055000D9F824A04FEA460B57451CD8AAEB07054B
:10056000454528BF454635B9019B83F31188284688
:1005700005B0BDE8F08F06EB460304EBC303D96971
:100580002A463944029807F0DCF92F44B34404EBBF
:10059000CB04A762E8E7D9F82050731CED1B454552
:1005A00028BF454603EB430204EBC20251680298A0
:1005B0002A463944039307F0C4F9D9F820202F4480
:1005C0009742A8EB050814BFAAEB070A0027D045FD
:1005D00028BFD046039BB8F1000F02D1002DD5D122
:1005E000C2E703EB430304EBC303596802983944A1
:1005F00028444246454407F0A4F94744002DC5D19C
:10060000B2E700BF580000206882000814010020F3
:100610002DE9F04F83B0064691460091EFF3118B20
:100620004FF0200181F311884D4C2378532B3ED09D
:100630007822002104F1300007F070F94FF0030C2C
:10064000484FC4F810C0C4F814C0DFF81CC1A7613B
:100650000023C4F81CC04FF4805C4520472552217C
:1006600054224FF0100A4FF0530E4FF02008C4F8F8
:1006700020C0A3626362E362276604F1A80767668D
:10068000C4F868A02367E366636784F800E06070DD
:10069000A570E5702071617184F80680E1712272A5
:1006A0006272A372E37223736373A373E37306EB43
:1006B000460704EBC707D7F86CA0D7F87080730023
:1006C000D0451AD8AAEB08054D4528BF4D462DB98F
:1006D0008BF31188284603B0BDE8F08F796E2A4667
:1006E00000984144019307F02CF9019B08EB0507A2
:1006F000334404EBC3042767EAE7BD6E796EA5EBCC
:1007000008054D4528BF4D4600982A4641440193AF
:1007100007F017F9BA6E08EB05079742A9EB050930
:1007200014BFAAEB070A0027D14528BFD146019B79
:10073000B9F1000F02D1002DDAD1C9E79A1904EB03
:10074000C2020098516E284439444A464D440093F1
:100750004F4407F0F6F8009B002DC9D1B8E700BF61
:100760005800002068820008140100202DE9F84F8D
:100770002C4E00EB400306EBC3038B461546596A2B
:100780009A6A804691424FEA400948D09A6A91425B
:1007900025BF9A6A1B6A9B6A9B18013B5B1AAB4296
:1007A00011D209EB080206EBC202906A2844C31A70
:1007B0009362936A106A834205D3936A1B1A936209
:1007C000936A8342F9D209EB080706EBC7031C6A58
:1007D00008F1010A0AEB4A0A641A06EBCA0A0DE09C
:1007E0002246594607F0ADF8002206EBC703186A07
:1007F0002D1BA34411465A62441E75B1DAF8040059
:10080000A5420844ECD2C14406EBC90659462A4623
:1008100007F097F8736A2B447362BDE8F88F1B6A80
:10082000013BBCE7580000202DE9F0474B4E00EBA0
:10083000400006EBC006D6F874808A46B8F1010F76
:10084000174606F1600640D0B8F1020F0FD0B8F19C
:10085000000F5ED13369F468A3429CBFB2689B1855
:10086000013B1B1B9F425ED94046BDE8F0874FF01D
:100870000008D6E90225C1463369541BAB4203F197
:10088000FF319BBF03F1FF339B184B1B5B1BBC422B
:1008900028BF3C469C4228BF1C46706851462246F1
:1008A000284407F04EF8B26825449542A7EB0407A8
:1008B000A044A24403D0F560002FDDD1D4E7C6F8F0
:1008C0000C90002FD0D00025D6E73369D6E902542A
:1008D000A3429ABF03EB050808F1FF3803F1FF3884
:1008E000A8EB0408904528BF904670682F1BB845B8
:1008F000204413D3641B3A46444407F022F82246AE
:1009000070680AEB070107F01CF84046F460BDE888
:10091000F0874FF000084046BDE8F087424607F0F8
:1009200010F84444F1E7D6E90108A8EB0405AF420A
:1009300020443C440DD32A46A4EB080407F001F8F8
:10094000224670680AEB050106F0FBFFB846F4602A
:100950008AE73A4606F0F5FFF8E700BF58000020A6
:100960002DE9F04FDFF8709100EB400609EBC60669
:10097000D6F82CA08046BAF1010F8B46174683B0FB
:100980004FEA400547D0BAF1020F10D0BAF1000F7C
:1009900071D1B36A746AA3429CBF326A9B18013B4F
:1009A0001B1B9F4272D9504603B0BDE8F08F4FF039
:1009B000000A00F1010808EB4808756A4FEAC80808
:1009C000B36A346AAB4203F1FF329CBF1B1903F1D7
:1009D000FF33A4EB05048CBF531B5B1BBC4228BF39
:1009E0003C469C4228BF1C4609EB08025068594609
:1009F0002844224606F0A5FF336A25449D4208BFDD
:100A000000253F1BA244A3447562002FD8D1504655
:100A100003B0BDE8F08FB26AD6E90834A2429ABFAB
:100A200002EB030A0AF1FF3A02F1FF3AAAEB040AC9
:100A3000BA4528BFBA46461C06EB460609EBC60671
:100A400070681F1BBA4520441BD33A46019306F039
:100A500078FF019B7068E41A544422460BEB0701AF
:100A600006F06FFF5046454409EBC509C9F824401C
:100A700003B0BDE8F08F4FF0000A504603B0BDE868
:100A8000F08F524606F05DFF5444EBE72B1809EB5C
:100A9000C3031E6A431C03EB430309EBC30A321B67
:100AA000DAF80400974220443C4411D3019206F046
:100AB00048FF019AA41B0BEB0201DAF8040022465E
:100AC00006F03FFF454409EBC505BA466C626AE78C
:100AD0003A4606F036FFF5E7580000202DE9F84FBA
:100AE0007B4C074623780E46532B154645D04FF0D6
:100AF00003087822002104F1300006F00FFF4FF4C4
:100B0000805A0023C4F81080DFF8C8E1C4F81480CC
:100B1000DFF8C481C4F818E0C4F81C80C4F820A031
:100B2000A3626362E362C4F860E004F1A80EC4F853
:100B300064E045204FF0470C522154224FF05309F6
:100B40004FF0200B4FF0100EC4F868E02367E36607
:100B5000636784F80090607084F802C084F803C072
:100B60002071617184F806B0E17122726272A37221
:100B7000E37223736373A373E373EFF311884FF08E
:100B8000200181F3118807EB470704EBC704D4F871
:100B900074B06034BBF1010F48D0BBF1020F11D02B
:100BA000BBF1000F6AD12369E768BB429CBFA26812
:100BB0009B18013BDB1B9D426DD988F31188584679
:100BC000BDE8F88F4FF0000BDA46D4F80C90A3681C
:100BD0002269A3EB09074A4502F1FF319BBF02F1ED
:100BE000FF32D218A1EB0902A2EB0902AF4228BFE3
:100BF0002F46974228BF17466068314648443A4618
:100C000006F09FFEA368B9449945A5EB0705BB44D0
:100C10003E4404D0C4F80C90002DD9D1CDE7C4F8DF
:100C20000CA0002DC9D04FF00009D1E72369D4E909
:100C30000297BB429ABF03EB090B0BF1FF3B03F199
:100C4000FF3BABEB070BAB4528BFAB466068A9EB9E
:100C50000705AB45384418D3A7EB09072A463146A8
:100C60005F4406F06EFE3A466068711906F069FE50
:100C7000E76088F311885846BDE8F88F4FF0000B05
:100C800088F311885846BDE8F88F31465A4606F079
:100C900058FE5F44ECE7D4E90109A9EB070A554582
:100CA00038442F440ED352463146A7EB090706F0CD
:100CB00048FE3A46606806EB0A0106F042FEAB4683
:100CC000E7607AE731462A4606F03BFEF7E700BFC9
:100CD0005800002068820008140100202DE9F04F20
:100CE000924C064623780F46532B154683B045D0C9
:100CF0004FF003087822002104F1300006F00EFEC8
:100D00004FF4805A0023C4F81080DFF824E2C4F8BE
:100D10001480DFF82082C4F818E0C4F81C80C4F8FE
:100D200020A0A3626362E362C4F860E004F1A80E4D
:100D3000C4F864E045204FF0470C522154224FF094
:100D400053094FF0200B4FF0100EC4F868E02367F2
:100D5000E366636784F80090607084F802C084F8EA
:100D600003C02071617184F806B0E1712272627271
:100D7000A372E37223736373A373E373EFF31183BB
:100D80004FF0200181F3118806EB460804EBC808F8
:100D9000D8F82C900093B9F1010F4FEA460A59D0C8
:100DA000B9F1020F18D0B9F1000F40F08580D8F8E2
:100DB0002820D8F824108A429CBFD8F820001218A6
:100DC000013A521A954240F28180009B83F31188C8
:100DD000484603B0BDE8F08F4FF00009013606EB3E
:100DE0004606D8F824A04FEAC60BD8F82830D8F821
:100DF0002060534503F1FF329CBF9B1903F1FF3381
:100E0000A6EB0A068CBFA2EB0A03A3EB0A03AE42D1
:100E100028BF2E469E4228BF1E4604EB0B02506898
:100E200039465044324606F08CFDD8F82030B244A2
:100E30009A45A5EB0605B144374404D0C8F824A070
:100E4000002DD2D1C1E70023C8F82430002DBCD03A
:100E50009A46CAE7D8F82820D8F824B0D8F82080D5
:100E60005A4596BF02EB080902F1FF3909F1FF3933
:100E7000A9EB0B09A94528BFA946751C05EB45053B
:100E800004EBC5056868A8EB0B029145584416D3DE
:100E90003946019206F055FD019AABEB080BB918E3
:100EA0000BEB09073A46686806F04BFD0AEB0603B0
:100EB00004EBC3035F6288E74FF0000985E739461A
:100EC0004A4606F03EFD0BEB0907EFE70AEB060288
:100ED00004EBC20206F10109D2F820B009EB49097E
:100EE00004EBC909D9F80400ABEB010295420844B0
:100EF00005EB010814D33946019206F022FD019A50
:100F0000A8EB0B08B918D9F80400424606F019FD01
:100F10000AEB060304EBC303A946C3F8248054E795
:100F200039462A4606F00DFDF2E700BF58000020C2
:100F300068820008140100202DE9F04F074683B0B5
:100F400008460E4606F0EAFB914C05462378532BE3
:100F500045D04FF003087822002104F1300006F05C
:100F6000DDFC4FF4805A0023C4F81080DFF824E23F
:100F7000C4F81480DFF82082C4F818E0C4F81C809C
:100F8000C4F820A0A3626362E362C4F860E004F1E5
:100F9000A80EC4F864E045204FF0470C52215422BB
:100FA0004FF053094FF0200B4FF0100EC4F868E0DB
:100FB0002367E366636784F80090607084F802C07A
:100FC00084F803C02071617184F806B0E171227267
:100FD0006272A372E37223736373A373E373EFF319
:100FE00011834FF0200181F3118807EB470804EBD0
:100FF000C808D8F82C900093B9F1010F4FEA470ABE
:101000005AD0B9F1020F19D0B9F1000F40F0868023
:10101000D8F82820D8F824B05A459CBFD8F820101A
:101020005218013AA2EB0B02954240F28180009BDC
:1010300083F31188484603B0BDE8F08F4FF00009F4
:10104000013707EB4707D8F824A04FEAC70BD8F8B9
:101050002830D8F82070534503F1FF329CBFDB19CC
:1010600003F1FF33A7EB0A078CBFA2EB0A03A3EB44
:101070000A03AF4228BF2F469F4228BF1F4604EBFA
:101080000B025068314650443A4606F05AFCD8F8F4
:101090002030BA449A45A5EB0705B9443E4404D034
:1010A000C8F824A0002DD2D1C1E70023C8F824300D
:1010B000002DBCD09A46CAE7D8F82820D8F824B02A
:1010C000D8F820805A4596BF02EB080902F1FF3993
:1010D00009F1FF39A9EB0B09A94528BFA9467D1CD9
:1010E00005EB450504EBC5056868A8EB0B029145C7
:1010F000584416D33146019206F023FC019AABEB1B
:10110000080BB1180BEB09063246686806F019FCAB
:101110000AEB070304EBC3035E6288E74FF00009A4
:1011200085E731464A4606F00CFC0BEB0906EFE773
:101130000AEB070204EBC20207F10108D2F8209083
:1011400008EB480804EBC808D8F80400A9EB0B0228
:101150009542584415D33146019206F0F2FB019AAC
:10116000ABEB090BB1180BEB05063246D8F80400BF
:1011700006F0E7FB0AEB070304EBC303A9465E6234
:1011800055E731462A4606F0DCFB05EB0B06F1E796
:1011900058000020688200081401002070B40D4C33
:1011A00000EB400304EBC303D3E908656A1C9642D5
:1011B00008BF00229E6A964209D000EB400004EB73
:1011C000C004E069415570BC01205A62704700209C
:1011D00070BC7047580000202DE9F84F354C05468B
:1011E00023780E46532B41D07822002104F13000A1
:1011F00006F094FB4FF0030E00234FF4805A452075
:101200004FF0470C522154224FF010094FF0530871
:101210004FF0200BC4F810E0274FC4F814E0DFF8BB
:101220009CE0A761C4F81CE0C4F820A0A36263623C
:10123000E362276604F1A8076766C4F8689023672D
:10124000E366636784F80080607084F802C084F805
:1012500003C02071617184F806B0E171227262727C
:10126000A372E37223736373A373E373EFF31187C2
:101270004FF0200181F3118805EB450304EBC30314
:10128000D3E908014A1C904208BF0022986A9042A4
:101290000BD005EB450504EBC504E069465401207D
:1012A0005A6287F31188BDE8F88F002087F3118810
:1012B000BDE8F88F58000020688200081401002063
:1012C0002DE9F84F3E4C054623780E46532B41D06E
:1012D0007822002104F1300006F020FB4FF0030ECD
:1012E00000234FF4805A45204FF0470C52215422DE
:1012F0004FF010094FF053084FF0200BC4F810E0E6
:10130000304FC4F814E0DFF8C0E0A761C4F81CE077
:10131000C4F820A0A3626362E362276604F1A80711
:101320006766C4F868902367E366636784F80080A3
:10133000607084F802C084F803C02071617184F881
:1013400006B0E17122726272A372E3722373637357
:10135000A373E373EFF311874FF0200181F311883A
:1013600005EB450304EBC303586AD96AD3F820C0E0
:10137000421C944508BF002202294FEA450E12D0B4
:101380000EEB050304EBC303996A914212D005EBFF
:10139000450504EBC504E1690E5401205A6287F348
:1013A0001188BDE8F88F996A9142E9D1996A914212
:1013B000F9D0E5E7002087F31188BDE8F88F00BF7A
:1013C0005800002068820008140100202DE9F04F29
:1013D00083B0EFF311884FF0200181F31188434C63
:1013E0002378532B27D1E66E256FAE4261D2D4E924
:1013F00019A9A9EB0507012F28BF01270AEB050151
:101400003A460DF1070006F09CFA7B19994587F0E2
:10141000010214BFF61A0023B24228BF3246002A46
:1014200059D1A94547D0236788F311889DF8070053
:1014300003B0BDE8F08F7822002104F1300006F0FF
:101440006DFA032700234FF4805A472545204FF0BB
:1014500010094FF0530E264E522154224FF0200C0B
:10146000DFF890B027616761A661C4F81CB0C4F8CA
:1014700020A0A3626362E362266604F1A8066666A2
:10148000C4F868902367E366636784F800E06070DF
:10149000A570E5701D462071617184F806C0E17188
:1014A00022726272A372E37223736373A373E37392
:1014B000E66EAE4206D188F311884FF0FF3003B0DC
:1014C000BDE8F08F636E6A1C5B5D22678DF80730A4
:1014D00088F31188AAE71AF803206F440133FA71E0
:1014E000236788F31188A945A0D0E6E758000020BB
:1014F00068820008140100202DE9F04F4A4C4B4F40
:1015000083B0EFF311894FF0200181F31188237824
:10151000532B2AD1E66E256FAE4261D2D4E919BAB7
:10152000AAEB0508B8F1010F28BF4FF001080BEB3B
:10153000050142460DF1070006F003FA08EB05032A
:101540009A4588F0010214BFF61A0023B24228BF60
:101550003246002A56D1AA4544D0236789F3118820
:101560009DF8070003B0BDE8F08F03257822002125
:101570002F4806F0D3F90023472645205221542254
:101580004FF4805B4FF010084FF0530E4FF0200CDB
:1015900025616561274DA761E5611D46DFF898A0CB
:1015A000C4F820B0A3626362E3622766C4F864A053
:1015B000C4F868802367E366636784F800E06070BE
:1015C000A670E6702071617184F806C0E171227224
:1015D0006272A372E37223736373A373E373E66EA1
:1015E000B54202D189F311888BE7636E6A1C5B5D9B
:1015F00022678DF8073089F311889DF8070003B042
:10160000BDE8F08F1BF80320E844013388F8072079
:10161000236789F31188AA457FF473AF9DF807000B
:1016200003B0BDE8F08F00BF5800002068820008BA
:101630008800002014010020000100202DE9F0475F
:10164000244C2378532B06D1206FE36E181A18BF51
:101650000120BDE8F0877822002104F1300006F077
:101660005DF9032600234FF4805945204FF0470CC5
:10167000522154224FF0100853274FF0200E164DE0
:10168000DFF858A026616661A561C4F81CA0C4F803
:101690002090A3626362E362256604F1A805656693
:1016A000C4F868802367E36663672770607084F816
:1016B00002C084F803C020716171184684F806E006
:1016C000E17122726272A372E37223736373A37374
:1016D000E373BAE758000020688200081401002074
:1016E000044B00EB400003EBC003D86E1B6FC01A25
:1016F000704700BF58000020044B00EB400003EB94
:10170000C0039A6A586A801A704700BF58000020C8
:101710002DE9F84F3D4C814625788846532D1746D4
:101720001E4642D07822002104F1300006F0F6F87F
:101730004FF0030EDFF8D8C0C4F810E0C4F814E08E
:10174000DFF8D0E0C4F818C00025C4F81CE04FF45E
:10175000805EC4F820E0A5626562E562C4F860C0FE
:1017600004F1A80CC4F864C0452147205222542338
:101770004FF0530A4FF0200B4FF0100CC4F868C024
:101780002567E566656784F800A06170A070E07069
:101790002171627184F806B0E27123726372A572DE
:1017A000E57225736573A573E573EFF311824FF04E
:1017B000200181F31188606E60B16369012B1DDD2A
:1017C000E36FDBB16369022B1ADDD4F89430BBB14F
:1017D000032063696369834214DD002300EB400149
:1017E00004EBC104C4F86090C4F86480A766236762
:1017F000E366666782F31188BDE8F88F0120E9E7A8
:101800000220E7E74FF0FF30F4E700BF5800002068
:1018100068820008140100202DE9F84F3F4C8146F2
:1018200025788846532D17461E4642D0782200213F
:1018300004F1300006F072F84FF0030EDFF8E0C05C
:10184000C4F810E0C4F814E0DFF8D8E0C4F818C019
:101850000025C4F81CE04FF4805EC4F820E0A562C7
:101860006562E562C4F860C004F1A80CC4F864C005
:1018700045214720522254234FF0530A4FF0200BAA
:101880004FF0100CC4F868C02567E566656784F8FA
:1018900000A06170A070E0702171627184F806B0E0
:1018A000E27123726372A572E57225736573A57385
:1018B000E573EFF311854FF0200181F31188E069A2
:1018C00058B12369012B21DD636BFBB12369022B26
:1018D0001EDDE36CE3B1032023692369834219DD34
:1018E0000022431C03EB4303DB0044F80390234432
:1018F000C3F8048000EB400304EBC3042762A26238
:101900006262E66285F31188BDE8F88F0120E4E7A2
:101910000220E2E74FF0FF30F4E700BF580000205C
:1019200068820008140100202DE9F84F3C4C054660
:1019300094F800C08846BCF1530F17461E4645D0A8
:101940004FF003097822002104F1300005F0E6FF92
:10195000C4F81090DFF8CCE0C4F81490DFF8C89019
:10196000C4F818E00020C4F81C904FF48059C4F863
:101970002090A0626062E062C4F860E004F1A80E0A
:10198000C4F864E045214FF0470C522254234FF035
:10199000530A4FF0200B4FF0100EC4F868E0206798
:1019A000E066606784F800A0617084F802C084F883
:1019B00003C02171627184F806B0E2712372637210
:1019C000A072E07220736073A073E073022D23D8BD
:1019D000EFF311824FF0200181F3118855B92B46A6
:1019E0002B4404EBC3040A9BE36282F311880020BA
:1019F000BDE8F88F00206B1C03EB4303DB0005EB15
:101A0000450144F8038004EBC10123445F600E628A
:101A10006B0088624862E3E74FF0FF30E8E700BF01
:101A20005800002068820008140100202DE9F84FBA
:101A3000394C054694F800C08846BCF1530F174650
:101A40001E4645D04FF003097822002104F13000F2
:101A500005F064FFC4F81090DFF8C0E0C4F81490FB
:101A6000DFF8BC90C4F818E00020C4F81C904FF4D4
:101A70008059C4F82090A0626062E062C4F860E01F
:101A800004F1A80EC4F864E045214FF0470C52223F
:101A900054234FF0530A4FF0200B4FF0100EC4F8B0
:101AA00068E02067E066606784F800A0617084F8F1
:101AB00002C084F803C02171627184F806B0E2713B
:101AC00023726372A072E07220736073A073E0737C
:101AD000022D1ED8EFF311804FF0200181F3118801
:101AE00055B92B462B4404EBC3040A9B636780F370
:101AF00011880020BDE8F88F002105EB450204EBBA
:101B0000C202C2F860806B00576696661167D166A4
:101B1000E8E74FF0FF30EDE758000020688200084A
:101B2000140100202DE9F84F2E4C054623780E466F
:101B3000532B41D07822002104F1300005F0EEFE55
:101B40004FF0030E00234FF4805A45204FF0470C0E
:101B5000522154224FF010094FF053084FF0200B40
:101B6000C4F810E0204FC4F814E0DFF880E0A7616B
:101B7000C4F81CE0C4F820A0A3626362E362276695
:101B800004F1A8076766C4F868902367E366636793
:101B900084F80080607084F802C084F803C020716B
:101BA000617184F806B0E17122726272A372E3720D
:101BB00023736373A373E373022D0FD8EFF31183C1
:101BC0004FF0200181F31188013505EB4505ED004B
:101BD000665183F311880020BDE8F88F4FF0FF3085
:101BE000FAE700BF580000206882000814010020B6
:101BF0002DE9F84F2E4C054623780E46532B41D045
:101C00007822002104F1300005F088FE4FF0030E29
:101C100000234FF4805A45204FF0470C52215422A4
:101C20004FF010094FF053084FF0200BC4F810E0AC
:101C3000204FC4F814E0DFF880E0A761C4F81CE08E
:101C4000C4F820A0A3626362E362276604F1A807D8
:101C50006766C4F868902367E366636784F800806A
:101C6000607084F802C084F803C02071617184F848
:101C700006B0E17122726272A372E372237363731E
:101C8000A373E373022D0FD8EFF311834FF02001FC
:101C900081F3118805EB450504EBC504266683F343
:101CA00011880020BDE8F88F4FF0FF30FAE700BF41
:101CB0005800002068820008140100202DE9F84F28
:101CC0002E4C054623780E46532B41D07822002116
:101CD00004F1300005F022FE4FF0030E00234FF414
:101CE000805A45204FF0470C522154224FF01009E2
:101CF0004FF053084FF0200BC4F810E0204FC4F809
:101D000014E0DFF880E0A761C4F81CE0C4F820A06C
:101D1000A3626362E362276604F1A8076766C4F8FA
:101D200068902367E366636784F80080607084F8D6
:101D300002C084F803C02071617184F806B0E171BB
:101D400022726272A372E37223736373A373E373E9
:101D5000022D0FD8EFF311834FF0200181F311888A
:101D600005EB450504EBC504E66283F3118800200A
:101D7000BDE8F88F4FF0FF30FAE700BF58000020B1
:101D800068820008140100202DE9F84F2E4C05460A
:101D900023780E46532B41D07822002104F13000E5
:101DA00005F0BCFD4FF0030E00234FF4805A452090
:101DB0004FF0470C522154224FF010094FF05308B6
:101DC0004FF0200BC4F810E0204FC4F814E0DFF807
:101DD00080E0A761C4F81CE0C4F820A0A36263629D
:101DE000E362276604F1A8076766C4F86890236772
:101DF000E366636784F80080607084F802C084F84A
:101E000003C02071617184F806B0E17122726272C0
:101E1000A372E37223736373A373E373022D0FD86A
:101E2000EFF311834FF0200181F3118805EB450595
:101E300004EBC504666783F311880020BDE8F88FC2
:101E40004FF0FF30FAE700BF58000020688200081A
:101E5000140100202DE9F0471F4C7822002104F1E5
:101E6000300005F05BFD032600234FF48059452028
:101E70004FF0470C522154224FF0100853274FF0D7
:101E8000200E164DDFF858A026616661A561C4F8E2
:101E90001CA0C4F82090A3626362E362256604F18B
:101EA000A8056566C4F868802367E36663672770E2
:101EB000607084F802C084F803C02071617184F8F6
:101EC00006E0E17122726272A372E372237363739C
:101ED000A373E373BDE8F087580000206882000810
:101EE000140100202DE9F04F5E4C0646237883B0A4
:101EF000532B3ED07822002104F1300005F00EFD76
:101F00004FF4805A00234FF0030C452047255221FF
:101F100054224FF010094FF053084FF0200E524F4B
:101F2000DFF848B1C4F810C0C4F814C0A761C4F801
:101F30001CB0C4F820A0A3626362E362276604F1C8
:101F4000A8076766C4F868902367E366636784F848
:101F500000806070A570E5702071617184F806E002
:101F6000E17122726272A372E37223736373A373CB
:101F7000E373FF230F2E8DF804306FD83C4B9B5D2D
:101F80008DF80530EFF311884FF0200181F31188AF
:101F9000E76A656A07F00307022F30D0A36AAB42F5
:101FA0009CBF226A9B18013B5B1B012B06D84FF09C
:101FB000FF3088F3118803B0BDE8F08FD4F820908B
:101FC000E369A9EB0507022F84F8B86003EB05006D
:101FD00005F102060ED801AD3A462946A6EB0906E0
:101FE00005F0AFFC3246E069E91905F0AAFC66622B
:101FF0000020DEE7BDF804205A536662F8E74FF090
:102000000009226A84F8B8600DF1040AA36A561B1D
:10201000AB4203F1FF319BBF03F1FF339B184B1B16
:102020005B1BBE4228BF3E469E4228BF1E46E0695B
:1020300051463246284405F084FC226A35449542D4
:10204000A7EB0607B24403D06562002FDED1CFE7CD
:10205000C4F82490002FCBD00025D7E74FF0FF30F5
:10206000A9E700BF58000020688200081401002082
:10207000208200082DE9F04F914C064623780D464A
:10208000532B87B041D07822002104F1300005F0B5
:1020900045FC4FF0030E00234FF4805A45204FF0CB
:1020A000470C522154224FF010094FF053084FF0C3
:1020B000200BC4F810E0834FC4F814E0DFF808E206
:1020C000A761C4F81CE0C4F820A0A3626362E362C5
:1020D000276604F1A8076766C4F868902367E3667B
:1020E000636784F80080607084F802C084F803C0DD
:1020F0002071617184F806B0E17122726272A3727C
:10210000E37223736373A373E3730F2E00F23A82B7
:10211000284605F003FB8046EFF311834FF02001C2
:1021200081F31188676A0193A36ABB4215D9013B09
:10213000A3EB070AE36A03F00309B9F1010F17D013
:10214000B9F1020F21D0B9F1000F15D108F1040344
:10215000534540F25381CB4610E0226A1A44E36AA9
:10216000013A03F00309B9F1010FA2EB070AE7D125
:10217000BAF1030F00F2AC804FF0FF3B019B83F3F9
:102180001188584607B0BDE8F08FFF23CB468DF885
:10219000143005AB9A4603934C4B206A9A5D029328
:1021A0008DF81520A36AC61BBB4203F1FF329BBF0B
:1021B00003F1FF331B18D31BDB1B5E4528BF5E46B4
:1021C0009E4228BF1E46E06951463844324605F01B
:1021D000B8FB206A37448742ABEB060BB24460D0B1
:1021E0006762BBF1000FDDD14FF0000B5E46A36AC2
:1021F000A0EB070ABB4203F1FF329BBF03F1FF33A1
:102200001B18D31BDB1BC24528BFC2469A4528BFFB
:102210009A46E06929463844524605F092FB206A06
:1022200057448742A8EB0A08D344554432D067622A
:10223000B8F1000FDBD1FF230025029A8DF814308E
:1022400094F8B830DDF80C80D35C8DF81530A36AB3
:10225000C61BBB4203F1FF329BBF03F1FF331B18C8
:10226000D31BDB1B4E4528BF4E469E4228BF1E4651
:10227000E06941463844324605F063FB206A374442
:102280008742A9EB0609B04413D06762B9F1000F89
:10229000DDD173E76662B8F1000F00F065810027B9
:1022A000A5E700236362BBF1000F00F05F811F46CA
:1022B00078E76562B9F1000F3FF460AF0027C6E729
:1022C00058000020688200081401002020820008C5
:1022D000FF238DF8143005AB99460393AB4B4FF0B9
:1022E000020B02939B5D8DF81530236A1E46A26A8D
:1022F000E069BA4202F1FF319CBF02F1FF3292194C
:10230000A6EB07068CBFCA1BD21B5E4528BF5E46E4
:10231000964228BF164649463246384405F011FB1E
:102320003744ABEB060BB144266AB74200F0FA80A3
:102330006762BBF1000FDAD133464FF0000BAAF110
:102340000406464528BF4646D846A26AA3EB0709BD
:10235000BA4202F1FF319BBF02F1FF32D218CA1B11
:10236000D21BB14528BFB146914528BF9146E069CF
:10237000294638444A4605F0E4FA236A4F449F420E
:10238000A6EB0906CB444D4400F0C7806762002EDF
:10239000DBD1FF224FF0020800261D4602998DF87E
:1023A000142094F8B820DDF80C908A5C8DF8152084
:1023B000A26AE069BA4202F1FF319CBF02F1FF322A
:1023C0005219A5EB07058CBFCA1BD21B454528BF78
:1023D0004546954228BF154649462A46384405F0E9
:1023E000B0FA2F44A8EB0508A944256AAF4200F0D3
:1023F000B4806762B8F1000FDAD1BFE6FF238DF831
:10240000143005AB9A460393604B4FF0020B0293D6
:102410009B5D8DF81530236A1E46A26AE069BA42B8
:1024200002F1FF319CBF02F1FF329219A6EB0706C1
:102430008CBFCA1BD21B5E4528BF5E46964228BF92
:10244000164651463246384405F07BFA3744ABEB2A
:10245000060BB244266AB74272D06762BBF1000F26
:10246000DBD133464FF0000B5E46A26AA3EB0709AF
:10247000BA4202F1FF319BBF02F1FF32D218CA1BF0
:10248000D21BC14528BFC146914528BF9146E0698E
:10249000294638444A4605F054FA236A4F449F427D
:1024A000A8EB0908CB444D4451D06762B8F1000F46
:1024B000DBD1FF224FF0020800261D4602998DF85D
:1024C000142094F8B820DDF80C908A5C8DF8152063
:1024D000A26AE069BA4202F1FF319CBF02F1FF3209
:1024E0005219A5EB07058CBFCA1BD21B454528BF57
:1024F0004546954228BF154649462A46384405F0C8
:1025000020FA2F44A8EB0508A944256AAF4210D051
:102510006762B8F1000FDBD130E6C4F824803EB327
:10252000002712E700236362BBF1000F27D01F468C
:10253000DDE66662B8F1000F3FF420AE0027C7E782
:10254000C4F82490BBF1000F16D0002765E766623F
:10255000B8F1000F0ED0002787E76662B8F1000FD0
:102560003FF40CAE002723E7474664E65F463BE6B0
:1025700037460EE747469CE733465F4672E73346E9
:102580005F46DAE64FF0FF3BFBE500BF2082000824
:10259000064A00EB400002EBC002936A506A834295
:1025A0009CBF126A9B18013B181A70475800002004
:1025B000064B00EB400003EBC0039A6A586A824264
:1025C00089BF1B6A801A9B18181A70475800002090
:1025D0002DE9F84F91420F46DDE90A94154606466B
:1025E0009B46C0F0B4800A464FF00108B2FBF5F2FA
:1025F000954208F10108F9D9D84538BFD84614F0FA
:10260000010A02D1B9F1000F70D1F16800296BDB2A
:10261000BBF1010F4FF0010406D90BF1FF3BBBF1F9
:10262000010F05FB04F4F8D8B7FBF4F39D4205D87D
:1026300005FB04F4B7FBF4F39D42F9D9B268DFF867
:102640001CB108E0002927DBAC42B4FBF5F323D32F
:102650001C46B7FBF3F3D6F804E0501C7045BC46AB
:1026600004FB13770CD8BCFBF4FC33681BF80C108C
:1026700099540246F168D6F804E00131C6E9020136
:102680007245DFD131683069FEF728FBB3689842A4
:1026900053D04FF0FF33F360BAF1000F24D0B9F1FB
:1026A000000F21D0202402E0F368002B1CDBC14581
:1026B00009F1FF3918D9D6E90132511C994207D8DE
:1026C00033689C540A46F368B1600133F360736861
:1026D0009A42E9D131683069FEF700FBB36898424D
:1026E00038D04FF0FF33F360BDE8F88FA30728D44C
:1026F000202405E0F1680029F6DBB9F1000F87D04E
:10270000C84582D2D6E90132511C994209F1FF39FC
:1027100007D833689C540A46F368B1600133F3600C
:1027200073689A42E6D131683069FEF7D7FAB36828
:102730009842D6D10023B360DCE70022F168B26092
:1027400080E7BBF1000F0CBF30242024D8E74FF006
:10275000010851E70023B360A6E700BF30820008FC
:102760002DE9F04F4FF0000840278146C3469FB047
:102770000C4604920EA9039014F8013B83B1252B5B
:1027800035D00BF10102974220D301F80B3008F14C
:10279000010800F0E68014F8013B9346002BEED1CF
:1027A000B8F1000F04D0BBF1000F40F0E881D8442D
:1027B00040461FB0BDE8F08F049D0BF101032A686D
:1027C000BB4202F10400286040F2DF81BB45D3D157
:1027D0005A4603980591FEF781FA8345059900F062
:1027E000B0804FF0FF3840461FB0BDE8F08F0026A4
:1027F000234613F8012BA2F123000D2808D8DFE8A7
:1028000000F07B0707070707070777077F070773AE
:10281000A2F1300009284FF0000501D90CE0013386
:1028200005EB850502EB45051A781C46A2F1300040
:102830000928A5F13005F2D92E2A00F08580002361
:102840009C4602F0FB00682804F101045CD0252AB4
:1028500062D0583AD0B220288ED8202A8CD801A035
:1028600050F822F0972900087927000879270008F6
:1028700079270008792700087927000879270008B8
:1028800079270008792700087927000879270008A8
:10289000B9270008652A0008792700087927000869
:1028A0007927000879270008792700087927000888
:1028B0007927000879270008792700087927000878
:1028C00079270008CF290008792700087927000810
:1028D000152B000879270008012B0008792700082C
:1028E00079270008972900081C4646F002067FE772
:1028F0001C4646F004067BE71C4646F0080677E7D0
:102900001C4646F0010673E714F8012B02F0FB00A9
:102910006828F9D0252A9CD10BF101039F4204D3EA
:1029200001F80B209B4608F101085F457FF424AFB6
:102930003A4603980591FEF7D1F9B84205997FF41C
:1029400050AF4FF0000B17E762782A2A0BD104989A
:102950004FF0010C036802341A1D026022781B68D4
:102960006FE7BB4634E7A2F13003092B04F1010401
:102970004FF0000300F2D08103EB830302EB43022C
:10298000A2F1300314F8012FA2F130000928F3D985
:102990004FF0010C55E7039ACDE908170C9210226D
:1029A000049FCDE90AB8386801680430CDE90056C3
:1029B000386008A8FFF70CFEDDE90817DDE90AB862
:1029C0000C9B0393B8F1000FBFF6D6AEF0E6049A65
:1029D00013681E6804330F2E136003D933461B0996
:1029E0000F2BFCD801250823013B012B2A464FEA77
:1029F0000515F9D1B6FBF5F30F2B09D91502B6FB76
:102A0000F5F30F2B04D92D01B6FBF5F30F2BFAD8F4
:102A10000594DFF8D0A20C4607E00F2D4FEA1513FE
:102A200040F229811D46B6FBF3F30BF101029742F8
:102A3000304605FB136608D3B0FBF5F01AF80030FA
:102A400008F1010804F80B3093465F45E5D13A469A
:102A500021460398FEF742F9B8427FF4C2AE4FF028
:102A6000000BDAE704984FF0010A0268D2F800C0C0
:102A7000043202608CEAEC72A2EBEC72092ACDF807
:102A800014C00ADDDFF860C21046ACFB02E2632826
:102A90000AF1010A4FEAD202F6DC9A4538BF9A469B
:102AA000002D00F0A380059806F00202002876DBD6
:102AB00016F0040040F0E280002A00F02F81002B85
:102AC00040F02C8106F00302022A40F09D8006941B
:102AD0001C46AA450BF101020FD2974205F1FF35C2
:102AE00006D34FF0300301F80B30934608F101088C
:102AF0005F4500F00581002DEBD12346069C83E065
:102B0000039ACDE90817049F0C92CDE90AB80A226E
:102B1000386849E7049D2A68101D28601568002D53
:102B20007DD0BCF1000F7BD0013305EB030A2B787D
:102B30000BF101060135002B3FF41EAE55453FF465
:102B400041AFB7420CD301F80B3008F101080AD0AD
:102B5000B3462B780BF101060135002BEED10BE6C5
:102B60005F45E4D13E46324603980591FEF7B6F83C
:102B7000B04205997FF435AE4FF0000BD7E75A46C7
:102B800048460EA9FEF7AAF811E6126808F10108F6
:102B900001F80B209B46BB457FF4EEAD18E6013DE6
:102BA000002A40F08F80F20700F1C680002D00F06F
:102BB0008C805A460696A34646460C469846AA4539
:102BC00002F101000CD2874205F1FF3504D34FF02A
:102BD0002003A35402460136974269D0002DEED15E
:102BE00021465C4693464346B046069E059A002A17
:102BF0006BDB06F0040000287AD106F00302022AFB
:102C000002D1002B00F0A980039ACDE908170C929D
:102C1000CDE900560A22CDE90AB80599C9E6334D37
:102C20008A4615F8013B73B10BF10106B7420CD38C
:102C3000B7420AF80B3008F1010809D015F8013B3A
:102C4000B346002BF0D1514696E5BB45E9D13E464F
:102C5000324651460398FEF741F8B0427FF4C1ADC9
:102C600015F8013B002B7ED04FF0000B0126002F02
:102C7000DED13E46ECE72146059CA3E6013D0AB1C4
:102C8000002B35D0F20771D50BF10102974249D2E2
:102C9000BB45B9D15A46039807930691FEF71EF833
:102CA000DDE9061358457FF49CAD4FF0000BA4E717
:102CB0003A4621460398FEF711F8B8427FF491ADE9
:102CC00000228BE7002B7FF46EAF05985A460BF17C
:102CD000010B40425F45059037D2974241D0934661
:102CE0008BE700BF30820008CDCCCCCC74820008CA
:102CF0000BF10102974215D25F457FF47EAFC9E721
:102D00003A4603980791FDF7E9FFB84207997FF427
:102D100068AD4FF0000BEEE69C4692E5F0077FF5BC
:102D200048AF71E7584693462B225F4508F10108EA
:102D30000A547FF462AFADE7059A0BF101005242ED
:102D400087420592A4D35A4683462D205F4508F159
:102D5000010888547FF451AF9CE7002D3FF454AF35
:102D6000B5E6BB4696E751469B4605E5002D7FF448
:102D700020AF00283FF441AFBAE700BF0EB400B562
:102D800082B003AB53F8041B01AA0193FFF7E8FCE0
:102D900002B05DF804EB03B0704700BF10B501212D
:102DA00082B07C2003F062F900244FF6FF7301A982
:102DB0001848ADF804308DF8074002F0F1FD01A984
:102DC000154802F0EDFD01A9144802F0E9FD01A942
:102DD000134802F0E5FD01A9124802F0E1FD214689
:102DE0007C2003F043F90121084603F03FF901215B
:102DF000042003F03BF922464FF48071054802F0AD
:102E000083FF094B034801A9019302F0C9FD02B0F9
:102E100010BD00BF00080140000C0140001001403F
:102E20000014014000180140000103104FF6FF712B
:102E3000002200F10803C0E903334360018102600E
:102E4000704700BF00230361704700BF10B4D0E992
:102E5000003294680133C1E901246160916010BCC3
:102E600008610360704700BF4FF6FF73B1F800C000
:102E700010B49C4510D000F108031C465B681A880A
:102E80006245FAD902684B60013299608C606160DA
:102E9000086110BC0260704704696368F2E700BF14
:102EA0000346026910B45468406899689C42816086
:102EB000486008BF51600021106810BC01381961DA
:102EC000106070472DE9F043064685B004F0ACFB76
:102ED00096F845305DB2002D1CDD06F1240808E0AF
:102EE000A26BE36B03969A423DD36B1EDAB25DB2DE
:102EF00082B1B46C002CF3D1736A5BB1404601F02F
:102F0000CFFD0028F1D001F063FE6B1EDAB25DB296
:102F1000002AEED1FF2386F8453004F095FB04F03B
:102F200083FB96F844305CB2002C14DD06F11005EA
:102F300003E0631EDAB25CB26AB133695BB1284662
:102F400001F0AEFD0028F4D001F042FE631EDAB2BB
:102F50005CB2002AF1D1FF2386F8443005B0BDE809
:102F6000F04304F071BB94F84570226CA36B7FB200
:102F700003F1010952B923685BB3781CC4F8389097
:102F800015D001377FB284F84570AEE7A06803A979
:102F900004F0D7FCA368226CC4F83890134462682C
:102FA000A36093420FD323687A1CA360E9D1636ABC
:102FB000002B9AD004F1240001F072FD002894D077
:102FC00001F006FEA1E77B1CDBD1636A002B8CD0ED
:102FD000F0E76068019301F0F3FE019B791C024663
:102FE0006360C4F8389009D07B1C5BB284F845302C
:102FF000002A3FF47AAF01F0EBFD86E7636A002B0D
:10300000F6D0019004F1240001F04AFD00287FF47D
:103010007AAF019A002AEED167E700BFF0B5846C61
:1030200083B0A26BE36B01909A4203D3002528463C
:1030300003B0F0BD94F84560226CA76B76B272B90C
:1030400025680137002D3CD01546731CA76317D0A7
:103050002846013676B284F8456003B0F0BD0D46CF
:10306000C9B9A06801A904F06CFCA368226C0137FF
:1030700013446268A3609342E7D32368A360E4E744
:10308000636A002BD3D004F1240001F009FD00286D
:1030900018BF0125CBE701A9E06804F052FC226CBF
:1030A000E36821689B1A8B42E360C2F1000204D3FB
:1030B000022D0CD000250137C7E763681344E36095
:1030C000F6E7606801F07CFE65600546BDE7012F0C
:1030D00038BF01270025B8E738B504460D4604F08F
:1030E000A3FAFF230022206CA26384F8443084F802
:1030F0004530E36B226800FB03F3181AA260134407
:1031000002446360E260CDB923691BB904F09CFA04
:10311000012038BD04F1100001F0C2FC0028F5D0F8
:103120004FF0E0234FF08052C3F8042DBFF34F8FD0
:10313000BFF36F8F04F088FA012038BD04F110004E
:10314000FFF774FE04F12400FFF770FE04F07CFA30
:10315000012038BDF8B507460D46164631B9542052
:1031600004F02CF9044680B3006009E000FB01F094
:10317000543004F023F9044638B300F154030360DB
:10318000C4E90F7504F050FA0025FF23226CA563F3
:1031900084F8443084F84530E36B216802FB03F384
:1031A0009A1AA1600B4411446360E16004F11000BD
:1031B000FFF73CFE04F12400FFF738FE04F044FA68
:1031C00084F850602046A564F8BD00242046F8BD70
:1031D00010B5044604F028FA236823B9646804F0A3
:1031E00033FA204610BD002404F02EFA204610BD0C
:1031F000F8B5064654200D4604F0E0F8044628B31E
:1032000000272060C0E90F6704F00EFAFF23A763D0
:1032100084F8443084F84530D4E90F3101FB03F3DE
:103220002268591AA26013440A446360E26004F100
:103230001000FFF7FBFD04F12400FFF7F7FD04F099
:1032400003FA0223A76484F85030A5632046F8BD32
:103250002DE9F041022B84B01F4604468846ADF8A4
:10326000062000F0C18000252E4607E004F0ECF9AE
:103270002046FFF727FE01F029F9012504F0D4F9D3
:10328000A06BE26B904244D3BDF80620002A7FD0A9
:10329000002D3AD004F0D8F901F052F804F0C4F946
:1032A00094F84430FF2B08BF84F8446094F845300C
:1032B000FF2B08BF84F8456004F0C6F90DF1060144
:1032C00002A801F055FC002868D104F0ADF9A26B0A
:1032D000E36B9A42CAD104F0B7F9BDF8061004F1C5
:1032E000100001F001FB2046FFF7ECFD01F0EEF8C5
:1032F0000028C2D14FF0E0234FF08052C3F8042DD4
:10330000BFF34F8FBFF36F8FB7E702A801F026FC22
:10331000C0E7226CA56B8AB926680135002E55D00E
:10332000A36CA56303B339462046FFF777FE20BBA5
:1033300004F08AF9012004B0BDE8F0814146002F75
:1033400032D0E06804F0FDFA226CE36851429B1A27
:103350002268E3609A4202D963680B44E360A36C7D
:103360000135A563002BDED1636A002BE0D004F1A8
:10337000240001F095FB0028DAD04FF0E0234FF055
:103380008052C3F8042DBFF34F8FBFF36F8FCFE789
:1033900004F05AF9002004B0BDE8F0812046FFF7A0
:1033A00091FD01F093F8F5E7A06804F0CAFAA3686C
:1033B000226C013513446268A3609342B0D3226843
:1033C000A36CA260A563002BADD1CDE7606801F0CE
:1033D000F7FCA36C6660A563002BA4D1636A002B85
:1033E000C5D10028C9D1A3E704F01EF9226CA36B54
:1033F000A56B002A90D04146E06804F0A2FA226C46
:10340000E36851429B1A2268E360934202D26368E8
:103410000B44E360002D83D10122A36CA263002B37
:1034200081D1A1E7F8B50546542003F0C7FF044653
:1034300068B3002701232060C0E90F3704F0F4F8D7
:10344000D4E90F26FF2306FB02F22168961BA16038
:103450000A4431446260E160A76304F1100084F81B
:10346000443084F84530FFF7E1FC04F12400FFF715
:10347000DDFC04F0E9F83B463A4639462046C4E90B
:10348000007784F85050A764E760FFF7E1FE20461C
:10349000F8BD00BF38B54568044601F033FC8542ED
:1034A00001D0002038BDE368013BE3600BB101208F
:1034B00038BD1A4619462046FFF7CAFEF7E700BF97
:1034C0002DE9F04304469146984683B0EFF3118707
:1034D0004FF0800383F31188BFF36F8FBFF34F8FDB
:1034E000856BC06B85421FD3B8F1020F05D0002059
:1034F00087F3118803B0BDE8F08394F84550226C3F
:10350000A66B6DB242BB23680136002B53D06B1CF7
:10351000A66334D001356DB284F84550012087F39D
:10352000118803B0BDE8F08394F84550226CA66B77
:103530006DB2002AE7D0B8F1000F43D1A06804F0C3
:1035400000FAA368226C013613446268A3609342B8
:10355000DDD32368A360DAE7E06804F0F2F9226CB7
:10356000E36821689B1A8B42E360C2F1000202D239
:1035700063681344E360012E38BF0126C7E7A36CDC
:1035800063B141462046FFF749FD0028C6D0B9F196
:10359000000FC3D00123C9F80030BFE7636A002BD6
:1035A000BCD004F1240001F07BFA0028B6D0B9F1B8
:1035B000000FEFD1B2E76068019301F001FC019BBD
:1035C0006360A4E7E06804F0BCF9226CE36821685A
:1035D0009B1A8B42E360C2F1000204D3B8F1020FE0
:1035E000C9D0013693E763681344E360F6E700BF90
:1035F00038B50C46EFF311854FF0800282F3118845
:10360000BFF36F8FBFF34F8F826BC16B91420ED9A7
:1036100090F845100132FF2982634AB20BD0013283
:1036200052B280F84520012085F3118838BD002072
:1036300085F3118838BD826C4AB10021FFF7EEFC9A
:103640000028F0D0002CEED001232360EBE7426A83
:10365000002AE8D0243001F023FA0028E3D0002C1F
:10366000F2D1E0E72DE9F041044684B088461E46D9
:10367000ADF8062003F0D8FFA56B002D6CD1BDF886
:103680000630002B3AD002A801F068FA2F4603F06A
:10369000DBFF00F055FE03F0C7FF94F84420FF2A3B
:1036A00008BF84F8447094F84520FF2A08BF84F8C6
:1036B000457003F0C9FF0DF1060102A801F058FAA8
:1036C00010BB03F0B1FFA36B5BBB03F0BDFF23682E
:1036D000002B39D0BDF8061004F1240001F004F9E4
:1036E0002046FFF7EFFB00F0F1FE10B303F09CFF64
:1036F000A56B8DBBBDF80630002BC8D103F0A4FF2D
:10370000002004B0BDE8F0812046FFF7DBFB00F0AD
:10371000DDFE03F089FFA36B002BEFD003F094FFD5
:10372000E4E703F091FF2046FFF7CCFB00F0CEFE6C
:10373000DCE74FF0E0234FF08052C3F8042DBFF3D5
:103740004F8FBFF36F8FD1E703F06EFF606801F01A
:10375000EFFA03F079FFBDE7226CE76852B16368C6
:10376000B9189942E16028BF2168404628BFE1604E
:1037700004F0E7F85EB92368013DA5631BB3236934
:10378000D3B903F061FF012004B0BDE8F081636AA2
:10379000E760002BF5D004F1240001F081F9002846
:1037A000EFD04FF0E0234FF08052C3F8042DBFF369
:1037B0004F8FBFF36F8FE4E704F1100001F070F951
:1037C0000028DED0EDE701F0BFFB6060D7E700BF67
:1037D00070B5466804460D4601F094FA864206D05C
:1037E00000232A4620461946FFF73CFF18B1012066
:1037F000E3680133E36070BD2DE9F0410446EFF367
:1038000011884FF0800383F31188BFF36F8FBFF3EC
:103810004F8F856B25B9284688F31188BDE8F08164
:10382000164690F84470026C7FB262B9013D7B1C71
:10383000A56319D001377FB284F84470012088F362
:103840001188BDE8F0810846E16863681144994237
:10385000E16028BF216805F1FF3528BFE16004F071
:1038600070F87B1CA563E5D12369002BE6D004F139
:10387000100001F015F90028E0D0002EDED0012361
:103880003360DBE770B50446EFF311854FF080033A
:1038900083F31188BFF36F8FBFF34F8F836B1BB917
:1038A000184685F3118870BD026CC6684AB163681A
:1038B0000846B1189942E16024BF2168E16004F034
:1038C00040F80120E66085F3118870BD10B504460C
:1038D00003F0AAFEA46B03F0B7FE204610BD00BFA4
:1038E00010B5044603F0A0FEA36BE46BE41A03F0EA
:1038F000ABFE204610BD00BF806B704703F0F8BDE3
:10390000C06C7047C164704790F85000704700BFAA
:10391000806BB0FA80F04009704700BF836BC06BCA
:10392000C01AB0FA80F04009704700BF70B5044675
:103930000E46154603F078FE94F84430FF2B04BF82
:10394000002384F8443094F84530FF2B04BF002353
:1039500084F8453003F078FEA36B23B12046BDE820
:103960007040FFF7AFBA04F124002A46314601F057
:103970003DF82046BDE87040FFF7A4BA38B50546CB
:103980008000543003F01AFD044630B3042300F1E4
:103990005402C0E90F53026003F046FED4E90F3130
:1039A000FF20002501FB03F32268591AA26013448B
:1039B0000A44A563636084F84400E26084F845002B
:1039C00004F11000FFF732FA04F12400FFF72EFA99
:1039D00003F03AFE84F85050A564204638BD00BF7D
:1039E00070B504460E4603F01FFEA56C25B10025F8
:1039F00003F02AFE284670BDA36B002BF8D10125E9
:103A0000A66403F021FE284670BD00BF836C8B4284
:103A100001D00020704720B5856B82B015B1002021
:103A200002B020BD019003F0FFFD0198856403F012
:103A30000BFE0120F4E700BF002300B583B00A4667
:103A400001A90193FFF70EFE019803B05DF804FB96
:103A50000023F0B583B00193EFF311874FF080039B
:103A600083F31188BFF36F8FBFF34F8F856B25B939
:103A700087F31188284603B0F0BD90F84460026CCB
:103A8000044676B26AB9013D731CA5631AD00136AB
:103A900076B2019D84F8446087F31188284603B00C
:103AA000F0BDC168436811449942C16028BF0168F4
:103AB00005F1FF3528BFC16001A803F042FF731C68
:103AC000A563E4D12369019D002BD1D004F110003E
:103AD00000F0E6FFCCE700BFF8B5214D04462E8884
:103AE00068680F460430B6B2FFF7DAF938B9012238
:103AF0006B68DB6A9A40AB6823EA0203AB604FF65F
:103B0000FF739C4210D03444A4B26B68A6429C80E0
:103B100011D8686A69680431FFF7A6F92B8D9BB24A
:103B2000A34200D92C85F8BD9FB9731E9BB26A6869
:103B30009E42938006D9286A6968BDE8F84004313E
:103B4000FFF792B9686A69680431FFF78DF92B8D28
:103B5000F8BD696803480431BDE8F840FFF776B95D
:103B600014110020201100202DE9F0479500074690
:103B700028468946984603F021FC002800F09680EC
:103B80000646542003F01AFC0446002800F08B80FF
:103B900006632A463046A52103F0C0FE266B99F83D
:103BA0000030043D2E4426F0070684F83430E3B19B
:103BB00099F8013084F83530BBB199F8023084F8B7
:103BC000363093B199F8033084F837306BB199F8F7
:103BD000043084F8383043B199F8053084F839302E
:103BE0001BB199F8063084F83A30089D4FF0000A6E
:103BF000032D28BF032504F104094846C4E9115ADE
:103C0000E56284F83BA0FFF71DF9C5F1040504F156
:103C10001800FFF717F9C4F84CA042463946304661
:103C2000258384F850A02461646203F0D1FC099BD1
:103C3000206003B11C603C4D03F0F6FCEB6A0133DD
:103C4000EB626B68002B3BD0D5F8D030E66A8BB3C3
:103C500005F130070123D5F8D42006EB86001A447D
:103C6000E263C5F8D420AA68B3401343494607EB82
:103C70008000AB60FFF7EAF803F0E6FCD5F8D0303F
:103C800073B16A68E36AD26A9A4209D24FF0E023BC
:103C90004FF08052C3F8042DBFF34F8FBFF36F8FE7
:103CA0000120BDE8F087304603F022FC4FF0FF30E2
:103CB000BDE8F0876B68DB6AB34298BF6C60C7E70A
:103CC0006C60EB6A012B03D0E66A05F13007C1E7AF
:103CD00005F130073846FFF7A9F805F14400FFF772
:103CE000A5F805F15800FFF7A1F805F1800805F1E6
:103CF0006C0005F19406FFF799F84046FFF796F837
:103D00003046FFF793F805F1A800FFF78FF805F1AB
:103D1000BC00FFF78BF805F10C00FFF787F8C5F83A
:103D200024802E62E66A95E71411002070B50546DE
:103D30002D4C03F079FC002D49D02E1D3046FFF7A5
:103D4000AFF830B9EA6A02EB820304EB83031B6B22
:103D50005BB3AB6A1BB105F11800FFF7A1F8D4F80B
:103D6000D43062680133AA42C4F8D43025D0E36A63
:103D7000286B013BE36203F0BBFB284603F0B8FB72
:103D8000636A1B686BB1636ADB68DB689B882385A9
:103D900003F05AFCD4F8D03013B16368AB4218D0AA
:103DA00070BD4FF6FF732385F2E70121A36801FA86
:103DB00002F223EA0203A360CBE731460B48FFF788
:103DC00045F8D4F8D8300133C4F8D830E0E7656856
:103DD000B3E74FF0E0234FF08052C3F8042DBFF358
:103DE0004F8FBFF36F8F70BD14110020D0110020D2
:103DF00070B5144D6B68834217D0044603F014FC71
:103E0000666903F021FC6B6A9E4210D02B6A9E42C9
:103E10000DD005F10C039E420BD0BC35AE420ED046
:103E2000002E0CBF0420012070BD002070BD0220B8
:103E300070BDA36A002B0CBF0320022070BD0420BC
:103E400070BD00BF1411002010B5044603F0ECFB58
:103E500024B1E46A03F0F8FB204610BD034B5C6814
:103E6000E46A03F0F1FB204610BD00BF14110020EE
:103E7000EFF311834FF0800282F31188BFF36F8F4D
:103E8000BFF34F8F18B183F31188C06A7047034A9C
:103E9000506883F31188C06A704700BF1411002076
:103EA00003292DE9F84328BF032104460D4603F0FA
:103EB000BBFB002C3AD0636C9D4233D0DFF8B4805A
:103EC0000BD9D8F80420A24251D0D8F80420D76AE0
:103ED000AF428CBF0027012705E0D8F804703F1BD4
:103EE000B7FA87F77F09E66A6564B342B4F9183018
:103EF00008BFE562002BA4BFC5F1040525831E4D54
:103F0000626906EB860305EB83039A4211D04FB139
:103F10004FF0E0234FF08052C3F8042DBFF34F8FD2
:103F2000BFF36F8FBDE8F84303F08EBB114B5C68A5
:103F3000C1E704F104094846FEF7B2FF38B901228F
:103F4000D8F80830B24023EA0203C8F80830012349
:103F5000E26AD8F8084002EB8200934023434946C6
:103F600005EB8000C8F80830FEF770FFCFE70027A8
:103F7000B9E700BF141100204411002070B50446B9
:103F8000394D03F051FB002C41D0261D3046FEF781
:103F900087FF30B9E26A02EB820305EB83031B6BF8
:103FA00003B3A36A1BB104F11800FEF779FF314691
:103FB0002E48FEF74BFF03F047FBD5F8D030CBB9C6
:103FC0006B68A34200D070BDD5F8D0302BBBEA6A35
:103FD000E968914245D0D5F8DC304BB30123C5F8F0
:103FE000E03070BD0121AB6801FA02F223EA02035E
:103FF000AB60D6E703F018FB6B6A1B684BB16B6ACA
:10400000DB68DB689B882B8503F01EFBD8E76C68B8
:10401000BBE74FF6FF732B85F6E74FF0E0234FF039
:104020008052C3F8042DBFF34F8FBFF36F8F70BD65
:10403000C5F8E030AB68B3FA83F3DBB2C3F11F031A
:1040400003EB830305EB8300416B094A496802EBEC
:10405000830308339942416308BF4968CB6808BFAE
:1040600041636B6070BD00BF14110020201100205F
:104070004411002088B170B51D4D04466B68834221
:104080000AD003F0D1FA626905F10C039A4205D017
:10409000BDE8704003F0D8BA70BD7047A36A05F15F
:1040A000A8029342F4D0002BF2D1261D3046FEF731
:1040B000F7FE0123E06AAA6883401343AB6000EB7C
:1040C000800005F1300303EB80003146FEF7BEFEB1
:1040D0006B68E26ADB6A9A42DAD34FF0E0234FF072
:1040E0008052C3F8042DBFF34F8FBFF36F8FCFE71C
:1040F000141100202DE9F041EFF311874FF08003F8
:1041000083F31188BFF36F8FBFF34F8F1B4D41694E
:1041100005F10C02914205D0002687F31188304644
:10412000BDE8F081836A044605F1A8008342F3D01C
:10413000002BF1D1D5F8DC30D3B96B68E66ADB6AC5
:1041400004F104089E42404634BF00260126FEF7D3
:10415000A7FE0123E06AAA6883401343AB6000EB2B
:1041600080003035414605EB8000FEF76FFED4E756
:1041700004F11801FEF76AFECEE700BF141100201B
:104180002DE9F8434FF4007003F018F900286CD0C3
:104190000546542003F012F90446002867D028464B
:1041A000256300254FF40072A52103F0B7FB594B9E
:1041B000271D63633846C4E9115584F8385084F8E4
:1041C0003B50E562266BFEF73DFE04F11800FEF75A
:1041D00039FE042306F5FE7626F007062A46E56436
:1041E00023834D4984F8505030462461646203F0C3
:1041F000EFF94A4D2060C5F8E44003F015FAEB6A88
:104200000133EB626B68002B3CD0D5F8D030E66A06
:1042100093B305F130080123D5F8D42006EB8600CE
:104220001A44E263C5F8D420AA68B3401343394660
:1042300008EB8000AB60FEF709FE03F005FAD5F845
:10424000D03073B16A68E36AD26A9A4209D24FF0F9
:10425000E0234FF08052C3F8042DBFF34F8FBFF31C
:104260006F8F01F04FF9012814D0BDE8F88328467C
:10427000BDE8F84303F03CB96B68DB6AB34298BF12
:104280006C60C6E76C60EB6A012B16D0E66A05F13C
:104290003008C0E74FF0800383F31188BFF36F8FBE
:1042A000BFF34F8F00234FF6FF722A85C5F8D00069
:1042B0002B80BDE8F84303F015BA05F130084046FD
:1042C000FEF7B4FD05F14400FEF7B0FD05F158001E
:1042D000FEF7ACFD05F1800905F16C0005F19406CF
:1042E000FEF7A4FD4846FEF7A1FD3046FEF79EFD11
:1042F00005F1A800FEF79AFD05F1BC00FEF796FD5A
:1043000005F10C00FEF792FDC5F824902E62E66AD6
:1043100081E700BF49444C45954600081411002030
:104320004FF0800383F31188BFF36F8FBFF34F8F7C
:104330000022024BC3F8D02003F074B914110020FE
:10434000034AD2F8DC300133C2F8DC30704700BFDA
:104350001411002010B503F067F9034B1C8803F01B
:1043600073F9A4B2204610BD14110020EFF311839D
:104370004FF0800282F31188BFF36F8FBFF34F8F2E
:10438000024A108880B283F311887047141100200C
:10439000014BD86A704700BF1411002008B13430B7
:1043A0007047024B58683430704700BF141100202A
:1043B000014BD3F8E4007047141100202DE9F047B9
:1043C000404CD4F8DC30002B52D1B4F8008008F116
:1043D00001081FFA88F8A4F80080B8F1000F0FD187
:1043E000636A226A62622362D4F8E8300133C4F857
:1043F000E830636A1B68002B56D14FF6FF732385A4
:10440000238D9BB2434541D8636A1E68002E55D068
:1044100000264FF0010ADFF8B09020E03846FEF7A2
:104420003FFDAB6A05F118000BB1FEF739FDE86AF4
:10443000A2680AFA00F300EB80001343394609EB47
:104440008000A360FEF702FD6268636AE96AD26ACF
:104450001B68914228BF46F00106002B2ED0636AEC
:10446000DB68DD68AB882F1D9845D7D223850EE029
:104470000020D4F8EC300133C4F8EC30D4F8E0304C
:10448000002B18BF40F00100BDE8F08700266368EC
:10449000DB6A03EB830304EB83031B6B012B94BFE9
:1044A000304646F00100E9E7636ADB68DB689B8819
:1044B0002385238D9BB24345E8D8A5E74FF6FF73CC
:1044C0002385E4E714110020441100202DE9F04178
:1044D000384C03F0A9F8D4F8DC30013BC4F8DC30E8
:1044E000D4F8DC30002B42D1E36A002B3FD0D4F863
:1044F000A83063B3012604F13007D4F8B430DD6886
:1045000005F1040805F11800FEF7CAFC4046FEF765
:10451000C7FCE86AA26806FA00F300EB80001343C8
:10452000414607EB8000A360FEF790FC6368EA6AEF
:10453000DB6A9A42D4F8A8301FD3C4F8E060002B9D
:10454000DBD1636A1B6873BB4FF6FF732385D4F816
:10455000EC504DB10126FFF731FF08B1C4F8E0601F
:10456000013DF8D1C4F8EC50D4F8E0305BB9002438
:1045700003F06AF82046BDE8F081002BBDD1636AE4
:104580001B6883B9E0E74FF0E0234FF08052C3F897
:10459000042DBFF34F8FBFF36F8F012403F054F846
:1045A0002046BDE8F081636ADB68DB689B88238571
:1045B000CDE700BF1411002008B5154BB0F800C0BE
:1045C000D3F8DC2061440132C3F8DC201A888BB2B6
:1045D00092B2944510D99C4510D80380FFF776FF1E
:1045E00048B94FF0E0234FF08052C3F8042DBFF3D9
:1045F0004F8FBFF36F8F08BD9C4501D89A42ECD214
:104600009A1A0380002190B2FFF766FAE6E700BF2E
:104610001411002070B550B94FF0E0234FF08052D4
:10462000C3F8042DBFF34F8FBFF36F8F70BD184DCC
:104630000446D5F8DC300133C5F8DC302E886868D4
:10464000B6B20430FEF72CFC38B96A68AB68D16AA0
:1046500001228A4023EA0203AB603444A4B26B68AF
:10466000A6429C800ED8686A69680431FEF7FCFB9C
:104670002B8D9BB29C4238BF2C85FFF727FF00286B
:10468000CAD070BD286A69680431FEF7EDFBF4E713
:104690001411002008B5144CD4F8D830002BFBD0EE
:1046A000D4F8DC30D4F8BC500133C4F8DC30FFF768
:1046B0000DFF002DF0D002F0B7FFD4F8C830DD6850
:1046C000281DFEF7EDFBE36A013BE362D4F8D83026
:1046D000013BC4F8D83002F0B7FF286B02F008FFA6
:1046E000284602F005FFD7E7141100202DE9F04F0E
:1046F0004FF000080446C3464B6801F108095D68A5
:104700000F464D4508BFCD6892463149EA6883B0EF
:1047100068688145786008BFD9F80400C66808BF9A
:104720007860002E51D03546E86A25602061E86B3C
:104730002B6BA06005F134006060207BE3610328EF
:104740001CD0686C84F80CA0C4E9050B1878A52867
:104750002DD11846864610F8015FA52DFAD0C3F179
:10476000010CF444CCF38F0CB242A4F820C008F141
:10477000010804F1240424D07D68C9E7D1F8DC00E5
:104780000130C1F8DC00A86A10B14FF002032373B6
:104790000192FFF79BFE686C2B6B6061C4F818B048
:1047A00084F80CA018780A49A528019AD1D04FF0B6
:1047B000000CB242A4F820C008F1010804F124045E
:1047C000DAD1404603B0BDE8F08F4D68ACE700BFDA
:1047D000141100202DE9F8432E4ED6F8DC300133B9
:1047E000C6F8DC30F36A8B424ED800249046074668
:1047F000224606F13005A6F12009131907EB8300C4
:10480000EB6B05F13C0143B10122FFF76FFF04445C
:1048100004EBC400E20007EB8000143D4D45ECD1F1
:10482000716A0B683BB10222FFF760FF044404EB9E
:10483000C40007EB8000316A0B683BB10222FFF72E
:1048400055FF044404EBC40007EB8000D6F8BC30ED
:1048500043B104221049FFF749FF044404EBC400AC
:1048600007EB8000F36823B103220C49FFF73EFFFA
:104870000444B8F1000F02D00023C8F80030FFF75D
:1048800025FE2046BDE8F8830024FFF71FFE2046E2
:10489000BDE8F88314110020D01100202011002061
:1048A000104AD2F8DC301BB10123C2F8E030704767
:1048B000C2F8E0309368B3FA83F3DBB2C3F11F03AD
:1048C00003EB830302EB83000346416B38334968F3
:1048D0009942416308BF4968CB6808BF4163536090
:1048E000704700BF1411002070B51C4D0C4669685C
:1048F0001831FEF7B9FA2E886868B6B20430FEF7B0
:10490000CFFA38B96A68AB68D16A01228A4023EAD3
:104910000203AB604FF6FF739C4217D03444A4B23D
:104920006B68A6429C8006D9286A6968BDE8704019
:104930000431FEF799BA686A69680431FEF794FA9F
:104940002B8D9BB29C4238BF2C8570BD6968044892
:104950000431BDE87040FEF779BA00BF14110020A1
:10496000201100200B466FEA43436FEA534370B5B2
:104970001C4C15466668616833831831FEF766FA89
:1049800026886068B6B20430FEF78AFA38B96268E1
:10499000A368D16A01228A4023EA0203A3604FF68A
:1049A000FF739D4217D03544ADB26368AE429D801F
:1049B00006D9206A6168BDE870400431FEF754BA38
:1049C000606A61680431FEF74FFA238D9BB29D4205
:1049D00038BF258570BD616803480431BDE870406B
:1049E000FEF734BA141100202011002070B51546CE
:1049F000294E0C4671681831FEF728FAA5B13388A4
:104A000070680430FEF74CFA38B901227168B36857
:104A1000C96A8A4023EA0203B36071681F480431FF
:104A2000BDE87040FEF712BA35887068ADB2043048
:104A3000FEF736FA38B97268B368D16A01228A4043
:104A400023EA0203B3604FF6FF739C4210D02C445C
:104A5000A4B27368A5429C8010D8706A7168043152
:104A6000FEF702FA338D9BB29C4200D2348570BDB2
:104A70006B1E9BB272689D42938006D9306A716842
:104A8000BDE870400431FEF7EFB9706A7168043117
:104A9000FEF7EAF9338D70BD1411002020110020BB
:104AA000C36870B5DD68164C05F118063046FEF790
:104AB000F7F9D4F8DC30EBB92E1D3046FEF7F0F9EB
:104AC0000123E86AA2688340134300EB8000A360DF
:104AD00004F13003314603EB8000FEF7B7F9636859
:104AE000EA6ADB6A9A4289BF012300201846C4F8AB
:104AF000E03070BD314604F1A800FEF7A7F9EEE7FB
:104B0000141100206FEA41416FEA5141F8B50126C6
:104B1000C56801802F1DFEF7C3F90F4C3846FEF71C
:104B2000BFF9EB6AD4F808C006FA03F204F13000CA
:104B300003EB830300EB830042EA0C023946A260D8
:104B4000FEF784F96368EA6ADB6A9A428ABF3046F4
:104B50000020C4F8E060F8BD14110020034BD3F826
:104B6000E8201B8802608380704700BF141100207A
:104B700070B50D46044602F057FD4FF6FF702A88C7
:104B8000124982420B8817D0D1F8E860D4F800C0EF
:104B9000A088B4459BB201D0834212D2A3EB000C93
:104BA0001FFA8CFC62450CD9C01A0244D1F8E80007
:104BB0000B882A802060A380002402F045FD204657
:104BC00070BD012402F040FD204670BD141100208C
:104BD0000122024BC3F8E020704700BF14110020EF
:104BE00000B1006C704700BF00B10164704700BFA6
:104BF0002DE9F84380460C4615461F46002851D043
:104C00000646F36A06F134022361336B2660E361E2
:104C1000F36B6260A360237B032B36D00023726C9E
:104C2000052FC4E9052313D0277375B1356B2B7895
:104C3000A52B3CD12B46194613F8012FA52AFAD0F3
:104C4000C5F101050D44C5F38F052584BDE8F88342
:104C50001D4F7A68904528D002F0E6FCD8F81490F1
:104C600002F0F2FC7B6A994523D03B6A994520D03B
:104C700007F10C0399451ED0BC37B94522D0B9F1D4
:104C8000000F0CBF04270127CEE70F49B26AD1F805
:104C9000DC300133C1F8DC300AB102232373FFF7A3
:104CA00015FCBBE7084B5E68ABE71F46BCE7002579
:104CB000CBE70227B8E7D8F82830002B0CBF032732
:104CC0000227B1E70427AFE71411002078B1006B89
:104CD0000378A52B11D103469C4613F8012FA52A72
:104CE000FAD0C0F101006044C0F38F007047044B5C
:104CF0005868006B0378A52BEDD00020704700BFEB
:104D000014110020014B5868704700BF1411002097
:104D1000064BD3F8D02032B1D3F8DC00B0FA80F0E3
:104D20004009400070470120704700BF1411002067
:104D3000E0B1F8B5204DC36A6A680446D26A93426E
:104D400013D2B0F91820002A04DB6A68D26AC2F1D3
:104D500004020283194E626903EB830306EB8303AB
:104D60009A4204D06B68DB6AE362F8BD7047271D86
:104D70003846FEF795F868B9E26A02EB820305EB64
:104D800083031B6B33B9012303FA02F2AB6823EAF6
:104D90000203AB606B683946DA6A0123E262AC68F1
:104DA0009340234302EB820006EB8000AB60BDE83A
:104DB000F840FEF74BB800BF14110020441100204A
:104DC00058B138B5C16A836C426C013B91420446CC
:104DD000836400D01BB1002038BD00207047051D42
:104DE0002846FEF75DF8A8B1134A636C2946C3F163
:104DF0000400E362208301249568104803EB830CD0
:104E000004FA03F300EB8C002B439360FEF71EF8CB
:104E1000204638BDE16A084A01EB810302EB8303B7
:104E20001B6B002BE1D10120936800FA01F123EA0A
:104E300001039360D9E700BF141100204411002042
:104E40002DE9F04381460027364B85B0DA6A89F8B0
:104E500000700292D86A00EBC000800002F0AEFA47
:104E600000285CD03A4602990546FFF7B3FC029051
:104E70000397039A029B9A424BD2DFF8AC80039BC4
:104E8000484603EBC30305EB83031B7B013BDBB20B
:104E9000032B98BF18F80360039B88BF002603EB21
:104EA000C30305EB8303596802F040FDA0EB090141
:104EB000A9EB0002062902F1070203D8202102F023
:104EC0002DFD0721039A039B039809F8017000EB5D
:104ED000C00005EB8000846802EBC20205EB820093
:104EE00003EBC30205EB820203690194148C89442D
:104EF000324648460D49009402F0EEFC484602F066
:104F00000DFC039B814401330393039A029B9A4255
:104F1000B5D3284605B0BDE8F04302F0E9BA05B0C4
:104F2000BDE8F08314110020408200087C82000854
:104F3000044A516853685268DB6A088BC3F1040362
:104F40001383704714110020044B5A681AB1596832
:104F50008A6C01328A645868704700BF14110020BF
:104F600070B5194C06460D4602F05EFB6368DB6CBB
:104F700023B90121636883F85010B5B902F064FBCE
:104F800002F052FB6368DD6C1DB156B1002263680C
:104F9000DA640022636883F8502002F055FB28464B
:104FA00070BD63686A1EDA64F3E72846FEF794FD75
:104FB0004FF0E0234FF08052C3F8042DBFF34F8F22
:104FC000BFF36F8FDAE700BF141100202DE9F04125
:104FD000204C1E4680460F46154602F025FB6368AE
:104FE00093F85030022B09D001216268D36C23EA78
:104FF0000803D364636883F85010DEB902F024FB21
:1050000002F012FB15B16368DB6C2B60636893F8E8
:105010005030012B1CD001256268D36C23EA0703B2
:10502000D3640022636883F8502002F00DFB284609
:10503000BDE8F0813046FEF74FFD4FF0E0234FF022
:105040008052C3F8042DBFF34F8FBFF36F8FD5E7A6
:105050000025E6E714110020F8B51E4604460F4669
:10506000154602F0E1FA0EB1E36C3360022394F8C6
:1050700050106A1E84F85030CDB2032A06D8DFE8FB
:1050800002F0350C0402022D34D0E764012D0AD061
:10509000012402F0D9FA2046F8BDE36C012D03F19A
:1050A0000103E364F4D1271D134E3846FDF7F8FEE3
:1050B000E36AB2689D4006F1300003EB83031543B9
:1050C00000EB83003946B560FDF7C0FE7368E26A05
:1050D000DB6A9A42DCD94FF0E0234FF08052C3F8EC
:1050E000042DBFF34F8FBFF36F8FD1E7E36C3B43CA
:1050F000E364CBE70024CCE7141100202DE9F04154
:105100000446EFF311864FF0800080F31188BFF35F
:105110006F8FBFF34F8F0BB1E06C1860022394F8D0
:105120005050013AEDB284F85030032A06D8DFE837
:1051300002F0270C0402022D3AD0E164012D0AD0BE
:10514000012086F31188BDE8F081E36C012D03F1A5
:105150000103E364F4D1194FD7F8DC30A3B104F1B3
:10516000180107F1A800FDF771FE7B68E26ADB6AAF
:105170009A42E5D9069BEBB11A4601231360DFE79B
:10518000E36C0B43E364D9E704F104084046FDF700
:1051900087FEE06ABB6885401D4300EB800007F195
:1051A0003003414603EB8000BD60FDF74FFEDCE7B6
:1051B0000020C6E70123C7F8E030C1E71411002042
:1051C0002DE9F843EFF311854FF0800383F3118845
:1051D000BFF36F8FBFF34F8F022390F8502080F8FA
:1051E0005030C36C012A03F10103C36403D085F37B
:1051F0001188BDE8F883DFF868800446D8F8DC3011
:105200000E4693B100F1180108F1A800FDF71EFE4B
:10521000D8F80430E26ADB6A9A42E8D90123DEB1A9
:10522000336085F31188BDE8F88300F1040948462E
:10523000D7B2FDF735FEE06AD8F8083087401F4343
:1052400000EB800008F13003494603EB8000C8F80A
:105250000870FDF7FBFDDBE7C8F8E030C7E700BFEB
:105260001411002038B578B1044602F0DDF994F845
:105270005030022B05BF00230125002584F8503053
:1052800002F0E2F9284638BD014B5C68EDE700BF4B
:1052900014110020F0B51B4E85B00CE0DB68DC6813
:1052A0001F88251D2846FDF7FBFD636A20469847A9
:1052B000E369012B08D033681A68002AEED1B2687E
:1052C000B360326005B0F0BD238B3B449BB29F427C
:1052D00010D37368002BEED00025ADF8087003944E
:1052E0000195FFF715FD2B462A46706801A9FDF7C9
:1052F000AFFFE0E729463068A3802461FDF7B4FDE5
:10530000D9E700BF041200202DE9F04F4FF0E0274D
:105310004FF0805B7A4C87B023681E68002E40F007
:105320008D80FFF70DF8FFF715F8A3890546834236
:1053300000F29480A368B0461A68A081B2FA82F2A3
:105340005209A8EB0501606889B2FEF7EFFAFFF792
:10535000BDF828B9C7F804BDBFF34F8FBFF36F8FF7
:10536000002369461A466068FEF77CF90028D3D00E
:10537000009B002BF4DB029E736913B1301DFDF717
:105380008FFDFEF7E7FFA389054683426CD8009B9B
:10539000A581092BE4D801A252F823F0C5530008D7
:1053A000C5530008C5530008615300081554000890
:1053B00035540008C5530008C55300086153000860
:1053C00015540008BDF80420318B366153189BB288
:1053D000AB42B3804BD8AB1A9BB2994225D8736AC3
:1053E00030469847F369012BBAD16368002BB7D0D8
:1053F0000021328BBDF8043003911344ADF8103016
:105400000596FFF785FC002360681A4603A9FDF79F
:105410001FFFA5E7BDF80420366153199BB2AB42CC
:105420003283B38027D8002A9AD0A068311DFDF7B7
:105430001BFD95E7304602F05BF891E7DB68B3F8B7
:105440000080FEF77DFFFEF785FFA38905468342B6
:1054500004D88045A08113D9002272E7FFF71AFF14
:10546000A581FFF733F87BE7FFF714FF8FE7AA4228
:1054700001D99A42B3D92068311DFDF7F5FC6FE7D9
:10548000FFF724F82368DB68D3F80C9009F1040ACD
:105490005046FDF705FDD9F81C30012B04D04846D5
:1054A000D9F8243098475BE7B9F81820C9F810906C
:1054B00008EB02039BB29D42A9F8043004D2514686
:1054C0002068FDF7D1FCEAE7A5EB08039BB29A42FE
:1054D00011D86368002BE2D00025ADF81080CDF81C
:1054E00014900395FFF714FC2B462A46606803A925
:1054F000FDF7AEFED3E75146A068FDF7B5FCCEE759
:1055000004120020F0B5154C83B002F08DF86568E8
:1055100085B102F099F8606850B103241048002367
:1055200001904FF480720F490F480094FEF71CFB66
:1055300003B0F0BD04F11007384604F12406FDF76E
:1055400075FC3046FDF772FC0C2103202A462760CB
:10555000A660FDF7FFFD6060DBE700BF04120020DE
:105560003C1200208C820008095300082DE9F04FFE
:10557000074683B02C20884616461D4601F01EFFC4
:10558000044690B1DFF8589002F04EF8D9F80420A4
:105590007AB102F059F80C9BC4E907652760A4F8BA
:1055A00018806362201DFDF74DFC204603B0BDE866
:1055B000F08F09F1100B584609F1240A0192FDF70A
:1055C00035FC5046FDF732FC0C210320019AC9F846
:1055D00000B0C9F808A0FDF7BDFDC9F80400D8E780
:1055E0000412002070B5164E84B07468BDF82050C7
:1055F000DCB10529ADF80820039001910DDCFFF71F
:1056000087FB02284FF00003716811D008461A4644
:1056100001A9FDF71DFE04B070BD1A462046002307
:1056200001A9FDF74DFF04B070BD204604B070BD68
:105630002A46084601A9FDF70BFE04B070BD00BF65
:1056400004120020014B986B704700BF0412002029
:10565000008B7047808870470068704710B504461B
:1056600001F0E2FF6469003C18BF012401F0ECFF87
:10567000204610BD10B5044601F0D6FF246A01F0A3
:10568000E3FF204610BD00BF38B504460D4601F0CB
:10569000CBFF2562BDE8384001F0D6BF10B4002032
:1056A0004FF41F04394A83B01168394B41F00101AE
:1056B000116051680B405360136823F0847323F426
:1056C00080331360136823F480231360536823F43A
:1056D000FE035360946000900190136843F480339C
:1056E000136003E0009BB3F5A06F09D0136803F4C7
:1056F00000330193009B01330093019B002BF1D0F9
:10570000224B1B6813F4003318BF01230193019B44
:10571000012B06D04FF000621E4B9A6003B010BC04
:1057200070471D4A194B116841F010011160116852
:1057300021F003011160116841F0020111605A6803
:105740005A605A685A605A6842F480625A605A68CD
:1057500022F47C125A605A6842F4E8125A601A68BD
:1057600042F080721A601A689201FCD55968074AA3
:1057700021F003015960596841F0020159605368F2
:1057800003F00C03082BFAD1C4E700BF001002405D
:105790000000FFF800ED00E000200240114A5368CD
:1057A00003F00C03082B0AD00F4B0E4A0F48526827
:1057B0000F49C2F30312825CD3400B6070475368F9
:1057C0005168C3F38343C90303F1020306D552684A
:1057D000920303D4044A02FB03F3E6E7054A02FB03
:1057E00003F3E2E70010024000127A00448200084E
:1057F0000000002000093D00034B40F0BF6040F472
:105800000030D860704700BF00ED00E030B50124E3
:105810000178C37801F01F024FEA511C9440C3B1D4
:105820000F4B0F25DA6890F801E0D2438378C2F37A
:105830000222D540C2F104022B400EFA02F20948BE
:1058400013431B010144DBB281F8003340F82C40C4
:1058500030BD044B0CF1200C43F82C4030BD00BF90
:1058600000ED00E000E100E021F06041024B21F09A
:105870007F0101439960704700ED00E0044A13691D
:1058800011B103431361704723EA000313617047AA
:1058900000ED00E04FF0E022136904280CBF43F054
:1058A000040323F004031361704700BF08B52F4BB6
:1058B00098421CD02E4B984223D02E4B98422AD08F
:1058C0002D4B984209D02D4B98422ED02C4B98420C
:1058D00035D02C4B98423CD008BD0121202000F04F
:1058E000DDFBBDE808400021202000F0D7BB0121EE
:1058F000042000F0D3FBBDE808400021042000F0A4
:10590000CDBB0121082000F0C9FBBDE80840002103
:10591000082000F0C3BB0121102000F0BFFBBDE850
:1059200008400021102000F0B9BB0121402000F008
:10593000B5FBBDE808400021402000F0AFBB0121CD
:10594000802000F0ABFBBDE808400021802000F083
:10595000A5BB01214FF4807000F0A0FBBDE808401A
:1059600000214FF4807000F099BB00BF0008014097
:10597000000C0140001001400014014000180140DB
:10598000001C014000200140012108B5084600F03C
:1059900085FBBDE808400021012000F07FBB00BF6F
:1059A00010B591F803E01EF0100F0EF00F0C00F090
:1059B0008A808A780B884CEA0204DAB2002A00F066
:1059C00018810268D90744BF22F00F0222439907C9
:1059D00044BF22F0F00242EA0412590744BF22F405
:1059E000706141EA0422190744BF22F4704141EA80
:1059F0000432D90644BF22F4702141EA04429906D8
:105A000044BF22F4700141EA0452590644BF22F017
:105A1000706141EA0462190648BF64F31F720260B4
:105A2000FF2B40F2E580BEF1280F426800F09A801B
:105A3000BEF1480F40F0E080D90505D54FF48071E4
:105A400022F00F0222430161990506D54FF400713F
:105A500022F0F00242EA04120161590506D54FF422
:105A6000806122F4706242EA04220161190506D5C0
:105A70004FF4006122F4704242EA04320161D90419
:105A800006D54FF4805122F4702242EA04420161AB
:105A9000990406D54FF4005122F4700242EA0452F0
:105AA0000161590406D54FF4804122F0706242EA48
:105AB000046201611B0440F19A804FF4004364F3D7
:105AC0001F72036193E00B886446DAB2002AA7D004
:105AD000BEF1280F026840F0BD80D90705D501212D
